:020000040800F2
:1000000080080020C91400084D0500084F050008AD
:1000100053050008570500085B05000800000000B4
:100020000000000000000000000000005F05000864
:100030006105000800000000630500086505000870
:10004000E3140008E3140008E3140008E3140008B4
:10005000E3140008E3140008E3140008E3140008A4
:10006000E3140008E3140008E3140008E314000894
:10007000E3140008E3140008E3140008E314000884
:10008000E3140008E3140008E3140008E314000874
:10009000E3140008E3140008E3140008E314000864
:1000A000E3140008E3140008E3140008E314000854
:1000B0005F0E0008170F0008590F0008E31400082E
:1000C000E3140008E3140008E3140008E314000834
:1000D000E31400086D130008E3140008E31400089B
:1000E000E3140008E3140008E3140008E314000814
:1000F000E3140008E3140008E3140008E314000804
:10010000E3140008E3140008E3140008E3140008F3
:10011000E3140008E3140008E3140008E3140008E3
:10012000E3140008E3140008E3140008E3140008D3
:10013000E3140008E3140008E3140008E3140008C3
:10014000E3140008E3140008E3140008E3140008B3
:10015000E3140008E3140008E3140008E3140008A3
:10016000E3140008E3140008E3140008E314000893
:10017000E3140008E3140008E3140008E314000883
:10018000E3140008E314000800F002F800F069F836
:100190000AA090E8000C82448344AAF10107DA45E2
:1001A00001D100F05EF8AFF2090EBAE80F0013F0CB
:1001B000010F18BFFB1A43F0010318474C4D000014
:1001C0006C4D00000A444FF0000C10F8013B13F096
:1001D000070408BF10F8014B1D1108BF10F8015BA0
:1001E000641E05D010F8016B641E01F8016BF9D193
:1001F00013F0080F1EBF10F8014BAD1C0C1B09D1EA
:100200006D1E58BF01F801CBFAD505E014F8016B5B
:1002100001F8016B6D1EF9D59142D6D370470000ED
:100220000023002400250026103A28BF78C1FBD8FF
:10023000520728BF30C148BF0B607047662904F0E1
:100240001686002070471FB504F007FE03F05AFB26
:1002500004000020002104F0C9F8E0601FBD10B5C3
:1002600010BD03F06BFC1146FFF7EDFF00F0A0F8A6
:1002700003F089FC03B4FFF7F2FF03BC01F002F8BE
:1002800010B59748006804F077FD964A03C29FEDC9
:10029000960B53EC102B934890ED000B51EC100B88
:1002A00004F010FB0BD39FED920B53EC102B8D48F9
:1002B00090ED000B51EC100B04F03EFC02D200203C
:1002C0008D490870874890ED000B53EC102B8BA0E4
:1002D00003F0B2F810BD10B52DED048B9FED890B26
:1002E00053EC102B7F4890ED000B51EC100B04F0F9
:1002F00059FC41EC190BB0EE490AF0EE690A04F022
:100300006BF8B0EE408AF0EE608A9FED800B53EC04
:10031000102B51EC180B04F0D5FA03D200207D49C4
:10032000086002E001207B490860BDEC048B10BD31
:1003300010B5002000F0D2FE0446ACB1012C02D072
:10034000022C10D107E000207249091D086001202D
:100350006949087007E001206E49091D0860002006
:100360006549087000BF00BF10BD70B504460D465A
:1003700060682060684801F0A9FE684909684FF488
:10038000616202FB01006060D4E90010401A28603D
:1003900070BD63480068401C6149086008460068F9
:1003A000052804DD00205F4908605D49086070474A
:1003B0002DED048B4FF4A06001F0A6F84FF4E1306E
:1003C00000F06DFF58A003F037F8A82000F0FAFF06
:1003D00000F0D2F900F0CEFB00F062FE00F0E2FE89
:1003E00000F03EFC5321042000F0C3FC53216320A5
:1003F00000F0EBFC53214FF0FF3000F013FD6420C0
:1004000001F042F8444801F061FE444909684FF4A4
:10041000616202FB0100464908603F4801F056FE58
:100420003E4909684FF4616202FB0100414948609E
:1004300055E0414801880088401C3F4A1080C82987
:1004400004DD002011460880FFF772FFFFF718FF58
:10045000FFF741FF39493748FFF787FF35494968BA
:10046000334A1268501A04F015FA41EC190BB0EE39
:10047000490AF0EE690A03F0AFFFB0EE408AF0EEF1
:10048000608A9FED2F0B53EC102B51EC180B04F0EE
:1004900019FA01D2FFF77DFF124890ED000B51ECE5
:1004A000100B03F0B9FF08EE100A224890ED010A84
:1004B000B8EEC00AF0EE401A204890ED000AB8EEFF
:1004C000C02A1B4890ED000AB8EEC01AF0EE480AA8
:1004D0009FED1D0A00F071FA012000F0D5FFA8E79A
:1004E000B40100200800002000000000003071402E
:1004F0000000000000CC90400000002025660D0A9E
:10050000000000000000000000188540000000000E
:1005100000002440A482424200040040BC010020AC
:100520002C0000202400002073746172740000000D
:100530001C000020140000201000002020000020DB
:10054000000000000000594000C02844704700BF70
:10055000FEE700BFFEE700BFFEE700BFFEE7704713
:1005600070477047704700000CB500200190009064
:100570007648006840F480307449086000BF7348D2
:10058000006800F4003000900198401C0190009831
:1005900018B90198B0F5A04FF1D16C48006800F48B
:1005A000003010B10120009001E000200090009880
:1005B000012846D165484030006840F080506349CA
:1005C000403108606248006840F44040604908607B
:1005D0005E48083000685D490831086008460068D8
:1005E00040F4004008600846006840F4A0500860ED
:1005F0005848091F0860081F006840F08070091FF4
:10060000086000BF5148006800F000700028F9D071
:1006100040F20570504908604C480830006820F0EE
:1006200003004A49083108600846006840F00200AB
:10063000086000BF45480830006800F00C0008283A
:10064000F8D10CBD10B54548006840F4700043492E
:1006500008603E48006840F001003C490860002006
:100660003A4908310860394800683D49084037492F
:1006700008603C48091D0860081F006820F48020BD
:10068000091F0860002031490C310860FFF76CFF3A
:100690004FF0006031498039086010BD70B500200E
:1006A0000022022300240221284D08352D6805F080
:1006B0000C0020B1042806D0082834D107E02A4DC8
:1006C0002A4E356033E02A4D284E35602FE01F4D0D
:1006D0002D1D2D68C5F380541C4D2D1D2D6805F072
:1006E0003F0154B1224DB5FBF1F5184E361D366869
:1006F000C6F3881605FB06F209E01B4DB5FBF1F5C4
:10070000124E361D3668C6F3881605FB06F20F4DED
:100710002D1D2D68C5F301456D1C6B00B2FBF3F573
:10072000124E356003E0104D104E356000BF00BF23
:10073000064D08352D68C5F303150E4E705D0B4D43
:100740002D68C540094E356070BD0000003802407C
:100750000070004008544007003C024088ED00E073
:10076000FFFFF6FE103000240024F40030000020CB
:1007700000127A00340000201CB50121202001F075
:1007800057FA4FF4C060009001208DF8040000205B
:100790008DF8060003208DF8050001208DF8070074
:1007A0006946044800F0A6FF4FF4C061014801F01B
:1007B0001DF81CBD0014024010B52DED0A8B044637
:1007C00094ED022BB0EE420AF0EE620A94ED002B9B
:1007D000B0EE421AF0EE621A53EC102B51EC110BF2
:1007E00004F0E0F9C4E90C0194ED0A2BB0EE420AE2
:1007F000F0EE620A94ED0C2BB0EE421AF0EE621AA3
:1008000053EC102B51EC110B04F098F841EC180B41
:1008100094ED0E1BB0EE410AF0EE610A53EC102B82
:1008200003F02CFEC4E90E0194ED102BB0EE420A49
:10083000F0EE620A94ED082BB0EE421AF0EE621A66
:1008400053EC102B51EC110B04F078F841EC190B20
:1008500094ED0E2BB0EE420AF0EE620A94ED062BF8
:10086000B0EE421AF0EE621A53EC102B51EC110B61
:1008700004F064F841EC1B0B94ED0C2BB0EE420A33
:10088000F0EE620A94ED042BB0EE421AF0EE621A1A
:1008900053EC102B51EC110B04F050F841EC1C0BF5
:1008A00053EC1B2B03F0EAFD41EC1A0B53EC192B14
:1008B00003F0E4FD41EC180B9FED9C0B53EC102B67
:1008C00004F03CF8C4E9120194ED1A0B84ED180B06
:1008D00094ED0C0B84ED1A0B94ED182BB0EE420A3C
:1008E000F0EE620A94ED1A2BB0EE421AF0EE621AA4
:1008F00053EC102B51EC110B04F054F941EC180B94
:1009000094ED0A1BB0EE410AF0EE610A53EC102B95
:1009100003F068FEC4E9100194ED121BB0EE410A29
:10092000F0EE610A9FED831B53EC112B51EC100B81
:1009300003F058FE41EC180B03F06EFD00EE100AB8
:10094000BDEC0A8B10BD80ED000B80ED021B7047E3
:1009500080ED0A0B704710B5784801F0B7FB0446EC
:10096000204610BD70B504460D461646FFF7F3FF4E
:1009700020602068296888420FD820682968C1F162
:10098000FF31084400EE100AB8EE400ADFED6C0AB1
:1009900080EE201A86ED001A0CE020682968401AC3
:1009A00000EE100AB8EE400ADFED650A80EE201A6C
:1009B00086ED001A2068286070BD10B52DED0A8BF9
:1009C000B0EE408AF0EE608AB0EE419AF0EE619AA5
:1009D000B0EE42AA5B4A5C495C48FFF7C3FF5C4843
:1009E000007838B100205A4908709FED5A0A5548DE
:1009F00080ED000A5348006804F0BEF941EC1B0B7F
:100A0000B0EE4B0AF0EE6B0A5348FFF7A1FF4D48DA
:100A1000006804F0B1F941EC1B0BB0EE4B0AF0EEAC
:100A20006B0A4E48FFF794FF4648006804F0A4F9AB
:100A300041EC1B0BB0EE4B0AF0EE6B0A4848FFF797
:100A400087FF18EE900A04F097F941EC1B0B18EEA3
:100A5000100A04F091F941EC1C0BB0EE4B1AF0EEC9
:100A60006B1AB0EE4C0AF0EE6C0A3B48FFF76BFFD6
:100A700019EE900A04F080F941EC1B0B19EE100AF4
:100A800004F07AF941EC1C0BB0EE4B1AF0EE6B1A45
:100A9000B0EE4C0AF0EE6C0A3048FFF754FF3148D4
:100AA000006860B92C48FFF787FE2F4880ED000AE8
:100AB0002A48FFF781FE2D4880ED000A32E02948E0
:100AC000006801282ED12448FFF776FE264880EDE5
:100AD000000A2248FFF770FE254880ED000A1AEE52
:100AE000100A04F049F941EC1B0B2148006804F09E
:100AF00043F941EC1C0BB0EE4B1AF0EE6B1AB0EE62
:100B00004C0AF0EE6C0A1648FFF71DFF1448FFF779
:100B100053FEB1EE400AF2EE040A80EE201A1348AA
:100B200080ED001ABDEC0A8B10BD00000000000033
:100B30000000F03F0000000000002440000C0040D6
:100B400000D85648A00100209C01002098010020F8
:100B5000B00100206F12833A48000020B800002046
:100B60002801002024000020A4010020A80100206A
:100B7000AC0100201CB50121102001F059F8012121
:100B8000022001F055F86020009001208DF804004B
:100B900000208DF8060003208DF8050001208DF857
:100BA00007006946FE4800F0A5FD0120FD490860E8
:100BB0000020FD49C1F898024FF480700090012098
:100BC0008DF8040000208DF8060003208DF8050044
:100BD00002208DF807006946F44800F08BFD1CBD2B
:100BE00000B587B00121022001F06BF84FF461607D
:100BF00005900020ADF81000ADF81200ADF8180017
:100C000004A9EB4801F015FA00231A460321E8482D
:100C100001F083FF01A801F01AFE0A20ADF80C00D4
:100C200001A9E34801F0DCFD01221146E04801F092
:100C3000A1FE1D208DF8000001208DF801008DF827
:100C400002008DF80300684600F063FC0021D848DC
:100C500001F038FA0121D64801F074FA07B000BD5E
:100C60001CB5FFF7BDFF0121084600F0E1FFC020E1
:100C7000009002208DF8040000208DF806008DF809
:100C8000070002220621CB4800F0BFFD0222072107
:100C9000C84800F0BAFD6946C64800F02BFD1CBDEF
:100CA000C548006880B90120C4490870C44890ED67
:100CB000001A31EE001A80ED001A90ED001A31EEA4
:100CC000601A80ED001A23E0BC48007868B100206B
:100CD000BA490870B1EE601AB94880ED001AB1EE59
:100CE000601AB84880ED001A0BE0B64890ED001A83
:100CF00030EEC11AB248D0ED001A31EE211A80ED63
:100D0000001AAF4890ED001A31EE001A80ED001A7B
:100D1000AB4890ED001AB5EEC01AF1EE10FA10DDF6
:100D20000120A0490860A64890ED001ADFEDA61A40
:100D300081EE812ABCEEC21A11EE100AA349088086
:100D40000FE00020974908609D4890ED001ADFED04
:100D5000A01A81EE812ABCEEC21A11EE100A9B493C
:100D600008809A480088192802DA192097490880D3
:100D700070477FB505460C460121042000F0A1FF15
:100D80000295ADF804400020ADF80600ADF80C0067
:100D900001A9904801F04DF9012211468D4801F05A
:100DA000E9FD1E208DF8000001208DF801000320D0
:100DB0008DF8020001208DF80300684600F0A9FBC1
:100DC0000121844801F0BEF97FBD7FB505460C4680
:100DD0000121084600F075FF0295ADF8044000209F
:100DE000ADF80600ADF80C0001A94FF0804001F00D
:100DF00020F901221146900701F0BCFD1C208DF85E
:100E0000000001208DF8010002208DF80200012071
:100E10008DF80300684600F07CFB0121880701F093
:100E200091F97FBD3EB505460C460121082000F032
:100E300048FF0195A0B2ADF800000020ADF8020017
:100E4000ADF808006946644801F0F3F801216248F2
:100E500001F05AF90121604801F074F93EBD10B566
:100E60000121880701F09DFD01284FD15B480088D2
:100E7000401C5A49088008460088032846DD0020A7
:100E800008805748008814280DDA052000F0C9F9B9
:100E90005449534A128821F8120051480088401CD6
:100EA0004F49088032E0002014E04E4A411C32F8DD
:100EB000111022F81010114631F8101000EE101A1F
:100EC000B8EE400A4849D1ED000A30EE200A81ED23
:100ED000000A401C1328E8DB052000F0A2F9414974
:100EE000C8840846C08C00EE100AB8EE400A3E489E
:100EF000D0ED000A30EE200A80ED000A90ED000AE5
:100F0000F3EE040A80EE201A80ED001A0121880712
:100F100001F058FD10BD10B50121254801F041FD3B
:100F2000012814D122480088C0F3001028B92F48A6
:100F30000068401C2D49086009E01D480088C0F386
:100F4000001020B129480068401E2849086001218E
:100F5000174801F037FD10BD10B501211D4801F003
:100F600020FD01287ED12248007820B901200D49BA
:100F7000091D08605CE01E480078012858D1002057
:100F80000849091D08601B480068401C1949086091
:100F900019480068401C18490860164800682DE090
:100FA000001002409402424200004242000402400B
:100FB000000400400000024024000020C401002082
:100FC000C0010020C801002000401C460400002091
:100FD00000401CC600080040000C0040CC0100206E
:100FE000B8010020F4010020B4010020BC01002061
:100FF00000000020D0010020D40100201F490988F2
:10100000884203D201201E49086008E01D4800689C
:101010001A490988884202D90020194908601948EC
:10102000006819490988884202D9002015490860DA
:101030001648006805281CD9002014490860144887
:1010400090ED000ADFED130A80EE201AF0EE412A3F
:10105000114890ED000ADFED0F0A80EE201AB0EE85
:10106000413A00E005E0F0EE620AB0EE430AFFF715
:1010700017FE0121094801F0A5FC10BD0200002067
:10108000A0824042D001002004000020D4010020B2
:10109000A801002000007A44A401002000080040BC
:1010A0001CB50121112000F0C3FD1C200090002080
:1010B0008DF8040003208DF8050001208DF807004D
:1010C0006946354800F016FB0120009002208DF89B
:1010D00007006946314800F00DFB1CBD10B5044601
:1010E00014B101202E4908702D480078002837D00F
:1010F0001021294800F060FB78B10821264800F053
:101100005BFB50B10421244800F056FB28B10121BB
:10111000224800F051FB012822D10A2000F0B4F946
:1011200000201F49087010211B4800F045FB08B93A
:10113000012010BD0821184800F03EFB08B902202C
:10114000F7E70421144800F037FB08B90320F0E763
:101150000121124800F030FB01281BD10420E8E7F0
:1011600010210D4800F028FB012813D108210A485E
:1011700000F022FB01280DD10421074800F01CFBE0
:10118000012807D10121054800F016FB10B9012004
:10119000034908700020CCE7001002400000024024
:1011A000D801002000B58DB00121084600F040FDB7
:1011B0000121080200F096FD03208DF83000002088
:1011C0008DF8320020200B9001208DF83300032091
:1011D0008DF831000BA9294800F08CFA01F0F8FED7
:1011E0000020099007904FF48030089000200A906A
:1011F00007A801F027FF00208DF809000590039053
:1012000001208DF81800002001908DF8080001A938
:101210001B4801F0E8FE0121194801F02AFF0DB03A
:1012200000BD10B50446072301222146144801F0F1
:1012300060FF134801F0B9FF00BF0221104802F01F
:10124000D5F80028F9D00E4801F0EBFF10BD2DE9CC
:10125000F04107460C460025002608E03846FFF717
:10126000E0FF0544012000F00FF9701CC6B2A64251
:10127000F4DBB5FBF4F080B2BDE8F0810000024081
:101280000020014000BF704700BF4A4A128802F0A8
:101290004002002AF9D0C2B2464B9A80704710B57E
:1012A00088B004460121102000F01CFD01210846F1
:1012B00000F0BEFC072209213F4800F0A6FA0722F1
:1012C0000A213D4800F0A1FA4FF400700690022078
:1012D0008DF81C0000208DF81E0001208DF81F00E5
:1012E00003208DF81D0006A9334800F003FA4FF4DF
:1012F0008060069002208DF81C0000208DF81E00F2
:1013000001208DF81F0003208DF81D0006A92A4832
:1013100000F0F0F902940020ADF814000C20ADF8B4
:1013200012000020ADF81000ADF80E00ADF80C0072
:1013300002A9204801F089FC01211E4801F00DFDA1
:10134000012240F225511B4801F0BDFD25208DF8FA
:10135000040001208DF807008DF8050004208DF8A9
:10136000060001A800F0D5F808B010BD10B540F295
:101370002551104801F0E2FDD0B10E4801F01CFDEE
:10138000C4B2312C09D10D48006800F57A600B49D0
:10139000086001200A4908600AE0322C08D1074899
:1013A0000068A0F57A6005490860012004490860DA
:1013B00010BD000000100140000002401C00002091
:1013C0002400002010B504466FF0040000F0EEF891
:1013D000E11704EB5171C1F3C701394A117010468E
:1013E000007800EB4001C1EBC0104FF6FF7101EA3D
:1013F000C0003449088010BD0146314A12784A4382
:101400004FF0E0235A6100229A611A46126942F0B5
:1014100001021A6100BF4FF0E022106900F00102E2
:101420001AB100F48032002AF5D04FF0E0221269A0
:1014300022F001024FF0E0231A6100229A61704706
:101440000146204A12884A434FF0E0235A610022A5
:101450009A611A46126942F001021A6100BF4FF008
:10146000E022106900F001021AB100F48032002A73
:10147000F5D04FF0E022126922F001024FF0E02394
:101480001A6100229A61704770B504464FF40770E4
:1014900094FBF0F0C6B24FF4077094FBF0F100FB40
:1014A000114085B205E04FF40770FFF7C9FF701EC9
:1014B000C6B2002EF7D115B12846FFF7C1FF70BDA7
:1014C000E0010020E2010020094880470948004768
:1014D000FEE7FEE7FEE7FEE7FEE7FEE7FEE7FEE7E4
:1014E000FEE7FEE704480549054A064B7047000041
:1014F00045060008890100088002002080080020BD
:10150000800400208004002032490143324A1160E7
:10151000704770B5002100230F22C4781CB32E4CF5
:10152000246804F4E064C4F5E064C4F30721C1F165
:101530000404E3B20A4144789C40E1B28478144048
:1015400021430C07210E254C05786155047804F0E1
:101550001F050124AC4005786D11AD0005F1E025B3
:10156000C5F8004109E0047804F01F050124AC40EF
:101570001B4D0678761145F8264070BD194A0A4081
:101580000243154B1B1F1A60704739B1124A121DD6
:1015900012680243104B1B1D1A6006E00E4A121D12
:1015A000126882430C4B1B1D1A607047042808D137
:1015B0004FF0E021096941F004014FF0E022116190
:1015C00007E04FF0E021096921F004014FF0E0222B
:1015D000116170470000FA050CED00E000E400E046
:1015E00080E100E080FFFF1F10B504469848844268
:1015F00008D10121084600F086FB0021012000F0FF
:1016000082FB76E09348844208D10121022000F059
:101610007AFB0021022000F076FB6AE08E488442CB
:1016200008D10121042000F06EFB0021042000F00D
:101630006AFB5EE08948844208D10121082000F05D
:1016400062FB0021082000F05EFB52E084488442E7
:1016500008D10121102000F056FB0021102000F0DD
:1016600052FB46E07F48844208D10121202000F04F
:101670004AFB0021202000F046FB3AE07A488442F1
:1016800008D10121402000F03EFB0021402000F065
:101690003AFB2EE07548844208D10121802000F0F9
:1016A00032FB0021802000F02EFB22E070488442B3
:1016B00008D10121801500F026FB0021A01500F0C3
:1016C00022FB16E06B48844208D10121401500F04E
:1016D0001AFB0021601500F016FB0AE06648844200
:1016E00007D10121001500F00EFB0021201500F0AC
:1016F0000AFB10BDF0B50A4600210023002400BFFC
:101700003DE0012505FA01F3156805EA03049C4252
:1017100034D105684F000326BE40B54305601579F6
:101720004E00B5400668354305601579012D02D09D
:101730001579022D16D185684F000326BE40B543AA
:10174000856055794E00B5408668354385604568AB
:1017500001268E40B5434560456896798E40B6B205
:1017600035434560C5684F000326BE40B543C5609C
:10177000D5794E00B540C6683543C560491C10296F
:10178000BFD3F0BD4FF6FF710160002101714171BF
:101790008171C171704708B54FF480320092009A90
:1017A0000A430092009AC261C161009AC261C26993
:1017B0000092C269009208BD0246002013690B40E6
:1017C0000BB1012000E0002070470146086980B29B
:1017D00070470246002053690B400BB1012000E026
:1017E000002070470146486980B270470183704706
:1017F000418370470AB1018300E041837047416132
:10180000704742694A4042617047F0B500230024A6
:101810004D07ED0E02FA05F3CE1000F1200555F844
:1018200026504E07F70E0F26BE40B543CF1000F1ED
:10183000200646F82750CE1000F1200555F8265016
:1018400045EA0304CE1000F1200545F82640F0BD1E
:10185000000002400004024000080240000C024068
:10186000001002400014024000180240001C024018
:10187000002002400024024000280240F94800688D
:1018800040F00100F74908600020F649083108607F
:10189000F4480068F4490840F2490860F348091D1B
:1018A0000860F348EF4984310860F0481038091D9A
:1018B0000860EC48006820F48020EA4908600020B5
:1018C000E8490C310860E7498C3108607047002115
:1018D000E44A921C117011460870704710B5014619
:1018E0000022002300204A11012A02D1DD4C236886
:1018F00008E0022A03D1DB4C7034236802E0D94CA3
:101900007434236801F01F02012494401C400CB180
:10191000012000E0002010BD38B500200090002418
:10192000002500BF3120FFF7D9FF05460098401C75
:1019300000900098B0F5A04F01D0002DF2D03120DA
:10194000FFF7CCFF08B1012400E00024204638BD99
:1019500001460020C34A106820F0F80040EAC100A8
:1019600010607047C349086070470021BD4A70325B
:1019700011701170012802D004280AD104E001215D
:10198000B84A7032117005E00521B64A7032117004
:1019900000E000BF00BF7047B7490860704770B5EE
:1019A000049C41EA82150126C6EB530645EA06452A
:1019B000054345EA0465AB4E361D356070BDAD4943
:1019C00008667047820142EA0172A64B84331A60AE
:1019D0007047A8498866704710B5830143EA0163E0
:1019E00043EA02739F4C8834236010BDA149086705
:1019F0007047A049C864704702460020994B0833DD
:101A0000186820F0EC6042EA01031843954B083354
:101A10001860704702460020924B0833186820F087
:101A2000784042EA010318438E4B08331860704730
:101A3000014600208B4A0832106820F0030008435A
:101A40001060704787480830006800F00C0070474D
:101A500001460020834A0832106820F0F000084355
:101A600010607047014600207E4A0832106820F45A
:101A7000E05008431060704701460020794A083260
:101A8000106820F4604040EAC10010607047F0B573
:101A9000002100220024022500260223714F08376E
:101AA0003F6807F00C0121B1042905D0082937D17E
:101AB00005E0724F076036E0714F076033E0694F11
:101AC0003F1D3F68C7F38056664F3F1D3F6807F0D4
:101AD0003F036EB16A4FB7FBF3F7DFF888C10CF133
:101AE000040CDCF800C0CCF3881C07FB0CF40CE001
:101AF000624FB7FBF3F7DFF86CC10CF1040CDCF8B4
:101B000000C0CCF3881C07FB0CF4564F3F1D3F6808
:101B1000C7F301477F1C7D00B4FBF5F7076002E0C7
:101B2000564F076000BF00BF4E4F08373F6807F0B1
:101B3000F0010909534F7A5C0768D7404760494F65
:101B400008373F6807F4E051890A4E4F7A5C4768CE
:101B5000D7408760434F08373F6807F46041490B1F
:101B6000484F7A5C4768D740C760F0BD002100F459
:101B70004072B2F5407F0AD13A4A0832116821F426
:101B8000F811414A02401143364A08321160354A81
:101B900070321268C0F30B031A43324B70331A6071
:101BA0007047354944390860704733494039086007
:101BB000704736490860704701460020294A8C3238
:101BC000106820F01F004A1E1043264A8C32106015
:101BD000704701460020234A8C32106820F4F850E8
:101BE0004A1E40EA02201F4A8C32106070470146AC
:101BF00000201C4A8C32106820F44010084310600A
:101C0000704701460020174A8C32106820F44000CB
:101C100008431060704701460020124A8C32106859
:101C200020F440300843106070471949086070473D
:101C300039B10C4A3032126802430A4B30331A6011
:101C400006E0084A303212688243064B30331A608D
:101C50007047F9B1034A343212680243014B3433FE
:101C60001A601CE000380240FFFFF6EA1030002442
:101C70000030002000004742800E47420024F4005C
:101C800000127A00E4010020FFFCFF0F5C014742D4
:101C9000E01147428F4A126882438E4B1A607047A8
:101CA00039B18C4A121D126802438A4B1B1D1A60FF
:101CB00006E0884A121D12688243864B1B1D1A607B
:101CC000704739B1834A0C3212680243814B0C339E
:101CD0001A6006E07F4A0C32126882437D4B0C3357
:101CE0001A60704739B17B4A103212680243794B4F
:101CF00010331A6006E0774A103212688243754B3F
:101D000010331A60704739B1724A243A126802439C
:101D1000704B243B1A6006E06E4A243A12688243F4
:101D20006C4B243B1A60704739B16A4A203A1268FA
:101D30000243684B203B1A6006E0664A203A12686C
:101D40008243644B203B1A60704739B1614A1C3AA8
:101D5000126802435F4B1C3B1A6006E05D4A1C3A66
:101D6000126882435B4B1C3B1A60704739B1594A79
:101D7000143A12680243574B143B1A6006E0554A66
:101D8000143A12688243534B143B1A60704739B1BE
:101D9000504A103A126802434E4B103B1A6006E05C
:101DA0004C4A103A126882434A4B103B1A60704703
:101DB00039B1484A1C3212680243464B1C331A6040
:101DC00006E0444A1C3212688243424B1C331A60BC
:101DD000704739B13F4A2032126802433D4B2033ED
:101DE0001A6006E03B4A203212688243394B2033A6
:101DF0001A60704739B1374A243212680243354BB2
:101E000024331A6006E0334A243212688243314B8D
:101E100024331A60704739B12E4A2C3212680243BB
:101E20002C4B2C331A6006E02A4A2C32126882436B
:101E3000284B2C331A60704739B1264A3032126869
:101E40000243244B30331A6006E0224A30321268D3
:101E50008243204B30331A607047012808D11D4956
:101E60003C31096841F008011A4A3C32116007E030
:101E700018493C31096821F00801164A3C321160CA
:101E8000704739B1134A273A12780243114B273B66
:101E90001A7006E00F4A273A127882430D4B273B0F
:101EA0001A7070470B484030006840F08070094954
:101EB00040310860704701460020064A283A1268FF
:101EC0000A400AB1012000E000207047014926398C
:101ED000087070473438024010B50446FE4884420A
:101EE00008D101210846FFF752FF00210120FFF72A
:101EF0004EFF9DE0B4F1804F08D101210846FFF765
:101F000035FF00210120FFF731FF91E0F3488442C3
:101F100008D101210220FFF729FF00210220FFF74D
:101F200025FF85E0EE48844208D101210420FFF717
:101F30001DFF00210420FFF719FF79E0E9488442E2
:101F400008D101210820FFF711FF00210820FFF729
:101F50000DFF6DE0E448844208D101211020FFF715
:101F600005FF00211020FFF701FF61E0DF488442F8
:101F700008D101212020FFF7F9FE00212020FFF7E2
:101F8000F5FE55E0DA48844208D101210220FFF72E
:101F9000FEFE00210220FFF7FAFE49E0D548844208
:101FA00009D101210804FFF7F2FE00214FF480302F
:101FB000FFF7EDFE3CE0D048844209D101214804FE
:101FC000FFF7E5FE00214FF40030FFF7E0FE2FE0C1
:101FD000CA48844209D101218804FFF7D8FE0021B4
:101FE0004FF48020FFF7D3FE22E0C548844208D199
:101FF00001214020FFF7BAFE00214020FFF7B6FE86
:1020000016E0C048844208D101218020FFF7AEFECF
:1020100000218020FFF7AAFE0AE0BB48844207D1D6
:1020200001218015FFF7A2FE0021A015FFF79EFEFB
:1020300010BD00220288A84B98420ED0AC4B9842AB
:102040000BD0B0F1804F08D0A44B984205D0A44BE0
:10205000984202D0A34B984204D14FF68F731A4096
:102060004B881A43A04B984207D0A04B984204D00B
:102070004FF6FF431A400B891A4302804B68C36234
:102080000B880385944B984202D0994B984201D11A
:102090008B7A03860123838270474FF0FF314160C2
:1020A0000021018001814180817270470185828217
:1020B00070470A46002101884FF68F73194011437B
:1020C0000180704741627047C16270470146486AAB
:1020D00070470146088D704721B1028842F0020224
:1020E000028004E002884FF6FD731A4002807047B8
:1020F00021B1028842F00402028004E002884FF617
:10210000FB731A400280704721B1028842F08002BE
:10211000028004E002884FF67F731A400280704705
:1021200002884FF6F7731A40028002880A43028041
:10213000704702884FF6FF431A40028002880A4324
:102140000280704721B1028842F00102028004E05F
:1021500002884FF6FE731A400280704770B5002463
:1021600000220023058C4FF6FE7635400584028C54
:102170008388048B4FF68F752C40B51E2C400D883C
:102180002C43751E2A408D892A434D882A43524D7F
:10219000A84202D0564DA84213D14FF6F7752A40F7
:1021A000CD892A434FF6FB752A408D882A434FF686
:1021B000FF652B404FF6FF552B400D8A2B434D8A70
:1021C0002B43838004838D684563028470BD70B5A2
:1021D000002400220023058C4FF6EF76354005845D
:1021E000028C8388048B48F6FF752C404FF6FF4520
:1021F0002C400D884FF6FF7606EA05252C434FF656
:10220000DF752A408D8906EA05152A434D8806EABE
:1022100005152A43304DA84202D0354DA8421DD1A4
:102220004FF67F752A40CD894FF6FF7606EA0515F1
:102230002A434FF6BF752A408D8806EA05152A43C2
:102240004FF6FF352B404FF2FF752B400D8A06EA03
:1022500085052B434D8A06EA85052B43838004833D
:102260008D688563028470BD70B500240022002350
:10227000058C4FF6FF6635400584028C8388848B7D
:102280004FF68F752C404FF6FC752C400D882C4373
:102290004FF6FF552A408D894FF6FF7606EA052551
:1022A0002A434D8806EA05252A430B4DA84202D051
:1022B0000F4DA84238D14FF2FF752A40CD894FF615
:1022C000FF7606EA05252A434FF6FF352A408D881A
:1022D00006EA05252A4319E00000014000040040F9
:1022E00000080040000C00400010004000140040B6
:1022F000000401400040014000440140004801400A
:1023000000180040001C0040002000404EF6FF7501
:102310002B404DF6FF752B400D8A06EA05152B4321
:102320004D8A06EA05152B43838084838D68C56337
:10233000028470BD70B5002200230024058C4EF687
:10234000FF7635400584038C8488828B48F6FF75C0
:102350002A404FF6FF452A400D884FF6FF7606EAE1
:1023600005252A434DF6FF752B408D8906EA053574
:102370002B434D8806EA05352B43FE4DA84202D07B
:10238000FD4DA84208D14BF6FF752C400D8A4FF643
:10239000FF7606EA85152C43848082838D68056468
:1023A000038470BD00210180418081808160818132
:1023B000C18101824182704770B50346002000242C
:1023C0001846183001258D40ACB21D8CA5431D84E4
:1023D00009B108290AD100EB610005684FF68F7634
:1023E000354005600568154305600FE00D1FC5F316
:1023F0004E052844056848F6FF76354005600568B7
:102400004FF6FF7606EA02263543056070BD41634C
:10241000704781637047C1637047016470470A4623
:102420000021018B4FF68F731940114301837047D0
:102430000A460021018B48F6FF7319404FF6FF73DF
:1024400003EA02231943018370470A460021818B66
:102450004FF68F7319401143818370470A4600215C
:10246000818B48F6FF7319404FF6FF7303EA02238E
:102470001943818370470A460021018B4FF6F77399
:1024800019401143018370470A460021018B4FF226
:10249000FF7319404FF6FF7303EA022319430183C8
:1024A00070470A460021818B4FF6F773194011439C
:1024B000818370470A460021818B4FF2FF731940D8
:1024C0004FF6FF7303EA02231943818370470A46DC
:1024D0000021018B4FF6FB731940114301837047B4
:1024E0000A460021018B4FF6FF3319404FF6FF7368
:1024F00003EA02231943018370470A460021818BB6
:102500004FF6FB7319401143818370470A4600213F
:10251000818B4FF6FF3319404FF6FF7303EA022316
:102520001943818370470A460021018B4FF67F7360
:1025300019401143018370470A460021018BC1F302
:102540000E014FF6FF7303EA02231943018370471C
:102550000A460021818B4FF67F7319401143818316
:1025600070470A460021818BC1F30E014FF6FF73BD
:1025700003EA02231943818370470A460021018C34
:102580004FF6FD7319401143018470470A4600213C
:10259000018C4FF6F77319401143018470470A46C6
:1025A0000021018C4FF6DF7319404FF6FF7303EAE9
:1025B00002131943018470470A460021018C4FF62B
:1025C0007F7319404FF6FF7303EA02131943018426
:1025D00070470A460021018C4FF6FF5319404FF611
:1025E000FF7303EA02231943018470470A4600215E
:1025F000018C4FF2FF7319404FF6FF7303EA022379
:102600001943018470470A460021018C4DF6FF737F
:1026100019404FF6FF7303EA0233194301847047F0
:1026200030B5002301248C40A3B2048C9C43048465
:10263000048C02FA01F5ADB22C43048430BD30B5F0
:10264000002304248C40A3B2048C9C430484048C97
:1026500002FA01F5ADB22C43048430BD828B4FF2F7
:10266000FF331A408283828B4FF6FF7303EA012304
:102670001A4382837047F0B50C46154600210022AC
:102680000026078C4EF6FF7C07EA0C070784818B37
:10269000028C4FF6FF7707EA043640F6FF473940D1
:1026A0004FF6FF7707EA052739434FF6FF7707EA2A
:1026B0000337394345F6FF773A4046F480573A43AB
:1026C00081830284F0BD828B4FF6F3731A408283BC
:1026D000828B0A4382837047F0B50C461546002171
:1026E00000220026078C4FF6FF6C07EA0C070784D0
:1026F000818B028C4FF6FF7707EA04264FF60C77A2
:1027000039404FF6FF7707EA03172F4339434FF25B
:10271000FF573A4046F480773A4381830284F0BD04
:10272000028B4FF2FF331A400283028B4FF6FF7386
:1027300003EA01231A4302837047F0B50C4615469D
:10274000002100220026078C4FF6EF7C07EA0C07D9
:102750000784018B028C4FF6FF7707EA041640F6D8
:10276000FF4739404FF6FF7707EA033739434FF603
:10277000FF7703E0000001400004014007EA05275D
:1027800039434FF65F773A4046F010073A430183EA
:102790000284F0BD028B4FF6F3731A400283028B62
:1027A0000A4302837047F0B50C461546002100220B
:1027B000068C4FF6FE773E400684018B028C4FF666
:1027C0000C7631407E1C06EA03162E4331434FF649
:1027D000F576324044F00106324301830284F0BDB5
:1027E00070B505460C46208850B92389A2886188B7
:1027F0002846FFF7D8FFE1882846FFF7CBFF25E002
:10280000208804280AD12389A28861882846FFF7F6
:1028100094FFE1882846FFF783FF17E02088082807
:102820000AD12389A28861882846FFF755FFE188ED
:102830002846FFF748FF09E02389A28861882846D7
:10284000FFF719FFE1882846FFF708FF70BD002158
:1028500001804180012181800021C1800181704778
:102860002DE9F04105460C4600260127608808B98D
:10287000022600E00026A088012801D1022700E0FE
:1028800001272088A0B92389A28861882846FFF7FC
:102890008AFFE1882846FFF77DFF23893A463146C3
:1028A0002846FFF74AFFE1882846FFF739FF13E083
:1028B0002389A28861882846FFF73FFFE1882846E0
:1028C000FFF72EFF23893A4631462846FFF76BFF74
:1028D000E1882846FFF75EFFBDE8F0810146486BBE
:1028E00070470146886B70470146C86B70470146C8
:1028F000086C70470A884B881A438B881A43CB8828
:102900001A430B891A434B891A438B891A43A0F83F
:10291000442070470021018041808180C180018175
:1029200041818181704731B1B0F8442042F40042C6
:10293000A0F8442005E0B0F84420C2F30E02A0F84D
:102940004420704721B1828842F00402828004E072
:1029500082884FF6FB731A408280704721B18288CB
:1029600042F00102828004E082884FF6FE731A4032
:10297000828070471AB183890B43838102E0838987
:102980008B43838170478182704702460020138AFF
:102990000B400BB1012000E000207047CA430282C7
:1029A000704730B50246002000230024158A05EA4E
:1029B0000103958905EA010413B10CB1012000E07F
:1029C000002030BDCA430282704741EA0203A0F8EA
:1029D000483070471AB183890B43838102E08389B1
:1029E0008B438381704721B1828842F00802828044
:1029F00004E082884FF6F7731A408280704701899D
:102A00004FF6F8721140018170470A460021018992
:102A10004FF68F73194011430181704730B504465A
:102A20000D4629462046FFF7F0FF208940F00700B9
:102A3000208130BD2DE9F04104460D4616461F4663
:102A4000602D06D13B46012231462046FFF775FE38
:102A500005E03B46012231462046FFF7A4FE294609
:102A60002046FFF7D2FF208940F007002081BDE813
:102A7000F08130B50C4600210189C9B24FF6FF75CF
:102A800005EA0325154325432943018130BD2DE97E
:102A9000F04105460E4617469846002443463A46FE
:102AA00031462846FFF7E5FF2C894FF6F8700440C1
:102AB00044F007044FF68F70044044F070042C81FA
:102AC000BDE8F081F0B504460D4616461F463B466C
:102AD000324629462046FFF7CCFF208940F480404B
:102AE0002081F0BD82884FF68F731A4082808288E1
:102AF0000A438280704702894FF6F8731A400281B8
:102B000002890A430281704702894FF67F731A4097
:102B1000028102890A4302817047F0B50C461546CE
:102B20001E460021002200230189028B038C4FF6F0
:102B3000F877394021434FF6FC473A4040F20117FD
:102B40003A434FF6DD773B404FF6FF7707EA06172B
:102B50002F433B43018102830384F0BD21B182886E
:102B600042F08002828004E082884FF67F731A4030
:102B700082807047A0F850107047000010B50446DE
:102B8000FA48844208D101211020FFF700F9002102
:102B90001020FFF7FCF857E0F548844209D10121E5
:102BA0004804FFF7E3F800214FF40030FFF7DEF8A8
:102BB0004AE0F048844209D101218804FFF7D6F8A1
:102BC00000214FF48020FFF7D1F83DE0EA4884422D
:102BD00009D10121C804FFF7C9F800214FF40020F2
:102BE000FFF7C4F830E0E548844209D10121080527
:102BF000FFF7BCF800214FF48010FFF7B7F823E08F
:102C0000DF48844208D101212020FFF7C0F80021CD
:102C10002020FFF7BCF817E0DA48844209D10121EF
:102C20008807FFF7A3F800214FF08040FFF79EF8D8
:102C30000AE0D548844207D101214005FFF796F804
:102C400000216005FFF792F810BD2DE9FF4705460A
:102C50000E460024A14600BFA046B08900B100BFC7
:102C60002C8A24F44054F08804432C82AC8941F22D
:102C70000C608443B0883189084371890843044358
:102C8000AC81AC8A24F44074B0890443AC826846B9
:102C9000FEF7FDFEB548854202D0B948854202D113
:102CA000DDF80C9001E0DDF80890A88900F4004000
:102CB00040B109EBC90000EB091031684900B0FBD5
:102CC000F1F707E009EBC90000EB09103168890052
:102CD000B0FBF1F76420B7FBF0F004012009642198
:102CE00001FB1078A88900F4004040B1322000EBCD
:102CF000C800B0FBF1F000F00700044308E0322008
:102D000000EB08106421B0FBF1F000F00F00044369
:102D10002C81BDE8FF874FF41651016000218180AE
:102D2000C18001810C21418100218181704710B552
:102D300002460020108A20F470600B884C882343E0
:102D40008C882343CC8823431843108210BD002174
:102D5000018041808180C180704721B1828942F425
:102D60000052828104E082894DF6FF731A4082810D
:102D70007047028B02F47F420283028B0A43028374
:102D8000704721B1828942F40042828103E0828946
:102D9000C2F30E028281704721B1828A42F400623E
:102DA000828204E0828A4FF2FF731A408282704767
:102DB000C1F308028280704701468888C0F308008A
:102DC0007047028A4FF6F0731A400282028A0A4361
:102DD0000282704721B1828942F00202828104E0BE
:102DE00082894FF6FD731A408281704782894FF2C3
:102DF000FF731A40828182890A4382817047028A66
:102E00004FF6DF731A400282028A0A430282704739
:102E100021B1028A42F48042028204E0028A4BF627
:102E2000FF731A4002827047818941F0010181815C
:102E3000704721B1828A42F00802828204E0828ACD
:102E40004FF6F7731A4082827047028BD2B2028328
:102E5000028B42EA01220283704721B1828A42F04A
:102E60002002828204E0828A4FF6DF731A40828257
:102E7000704721B1828A42F01002828204E0828A85
:102E80004FF6EF731A4082827047828A4FF6FB73C7
:102E90001A408282828A0A438282704721B1828AE2
:102EA00042F00202828204E0828A4FF6FD731A40E9
:102EB000828270471AB1838A0B43838202E0838A3D
:102EC0008B4383827047F0B503460024002600251B
:102ED000002040F66A17B94200D100BF1846C1F37E
:102EE000421401F01F06012707FA06F5012C01D153
:102EF0000C3004E0022C01D1103000E014301AB183
:102F000007682F43076002E00768AF430760F0BD22
:102F100002460020B1F5007F00D100BF13880B40AE
:102F20000BB1012000E00020704701F40072B2F5FF
:102F3000007F00D100BFCA430280704770B50246CF
:102F4000002400230025002040F66A16B14200D17B
:102F500000BFC1F3421501F01F03012606FA03F377
:102F6000012D13D19689334017E000000010014075
:102F70000044004000480040004C00400050004029
:102F80000014014000780040007C0040022D02D176
:102F9000168A334001E0968A33400C12012606FA65
:102FA00004F41688344013B10CB1012000E0002075
:102FB00070BD10B50022002340F66A14A14200D172
:102FC00000BF0A1201249440A3B2DC43048010BD68
:102FD00010B501210802FEF7DAFE00214FF48070DF
:102FE000FEF7D5FE10BD30B5024600200023506824
:102FF000F84C20400D790C6844EA052420435060C9
:103000009068F54C2040D1E903542C438D682C4343
:103010004D7944EA450420439060D06A20F4700062
:103020000C7D641EE4B2234340EA0350D06230BDFD
:1030300000210160017141718160C1600161012164
:10304000017570470021E54A1168E54A1140D0E951
:1030500000231A4383681A43C3681A431143E14AA1
:10306000C2F8041370470021016041608160C160B3
:10307000704721B1826842F00102826003E08268F9
:1030800022F00102826070470A4600214168D64B57
:1030900019401143416070474162826270470A469D
:1030A0000021416821F01F0111434160704738B190
:1030B000CA49096841F40001CA4AC2F8041306E08B
:1030C000C649096821F40001C64AC2F804137047D2
:1030D00038B1C249096841F48001C24AC2F80413F8
:1030E00006E0BE49096821F48001BE4AC2F8041313
:1030F0007047F0B504460D4600200021092D11DD72
:10310000E068A5F10A0606EB4607072606FA07F16E
:103110008843A5F10A0606EB460603FA06F10843C2
:10312000E0600CE0206905EB4507072606FA07F189
:10313000884305EB450603FA06F108432061072A98
:103140000FDA606B561E06EB86071F2606FA07F19C
:103150008843561E06EB860605FA06F108436063AF
:1031600022E00D2A0FDA206BD61F06EB86071F26FA
:1031700006FA07F18843D61F06EB860605FA06F124
:103180000843206310E0E06AA2F10D0606EB860713
:103190001F2606FA07F18843A2F10D0606EB860604
:1031A00005FA06F10843E062F0BD816841F0804114
:1031B00081607047014600208A6802F080420AB1AF
:1031C000012000E00020704721B1826842F4806253
:1031D000826003E0826822F480628260704721B1DD
:1031E000826842F00202826003E0826822F00202FA
:1031F0008260704710B50A4600210023416821F41F
:103200006041531E41EA4331416010BD21B1426823
:1032100042F40062426003E0426822F400624260CD
:1032200070470146C86C80B270476C48001D00684A
:10323000704721B1826842F48072826003E0826844
:1032400022F480728260704721B1826842F4007279
:10325000826003E0826822F400728260704738B1B5
:103260005E49096841F400515E4AC2F8041306E061
:103270005A49096821F400515A4AC2F804137047A8
:10328000F0B504461546002000220026092911DD6C
:10329000E068A1F10A0707EB470C072707FA0CF2D1
:1032A0009043A1F10A0707EB470703FA07F210431F
:1032B000E0600CE0206901EB410C072707FA0CF2F3
:1032C000904301EB410703FA07F210432061A06B22
:1032D000C0F30156EF1C06F1010CA7EB0C0707EB3E
:1032E000870C1F2707FA0CF29043EF1C06F1010C24
:1032F000A7EB0C0707EB870701FA07F21043A0635F
:10330000F0BD10B50A4600210023816B21F4401165
:10331000531E41EA0351816310BD08B50023009399
:103320000090009B0B440093009B1A6008BD0A4666
:103330000021816821F470211143816070470A46A1
:103340000021816821F44011114381607047816838
:1033500041F4800181607047014600208A6802F4D0
:1033600080020AB1012000E00020704721B14268CC
:1033700042F48062426003E0426822F4806242606C
:10338000704721B1426842F48052426003E04268D3
:1033900022F480524260704708B502460020009037
:1033A000009201F12800009B1844009000980068EA
:1033B00080B208BD10B50B460021D9B2012404FA31
:1033C00001F11AB144680C43446002E044688C4344
:1033D000446010BDFFFEFFFCFDF7FFC00423014069
:1033E000E030FCFF00200140FFFD3FFF02460020CF
:1033F00013680B400BB1012000E000207047CA4366
:103400000260704770B502460020002300240B12B2
:10341000556801268E4005EA060415681D4015B161
:103420000CB1012000E0002070BD00220A12D3433D
:1034300003607047704700000FB4044910B503AA39
:10344000029800F04DFA10BC5DF814FBDC0100207E
:103450002DE9F0410E460446002020622046E16836
:10346000884730B3252805D0D4E901219047206A48
:10347000401CF2E7E168204600278847050018D085
:10348000A5F14100192802D820354FF400673246D3
:10349000294620462760FCF7D1FE40B1012804D020
:1034A000F61D26F007060836D8E7361DD6E728466B
:1034B000DAE7206ABDE8F0817047704770477047CF
:1034C00070472DE9FF4F0C461E464FF0FF378BB07B
:1034D000D2E90001DDF860800A908A46C1F30A55FE
:1034E00005B93D46002108464FF00000BAF1000F33
:1034F00000F4400005DA00EB80004FF4400101EADF
:1035000050004FEA9059B9F1010F00DDB9460A9811
:1035100050EA4A000ED044F61050A5F2FF3545435C
:103520002F14B8F1000F1ED07542291E1EDDC9F1FF
:1035300000021CE0B8F1010F4FF0000001D0302173
:1035400003E0F24305E02154401CB042FBDB30466F
:103550000022002121540B99C1F80880C1E9002004
:103560000FB0BDE8F08FBD1B6D1CDEE74A4600DAE8
:10357000694206A800F068FA06AB93E8070003ABBF
:1035800083E8070050460A9900F046FB8DE80700E3
:10359000A0F500501F3800900398002D0ADD42F27C
:1035A0001F014A460844002303A90390684600F01F
:1035B000AFFD09E0A0F500504A461F38002303A9DB
:1035C0000390684600F0B9FD8DE807000004000C88
:1035D00003D04FF0FF30410800E01046B8F1000F73
:1035E00003D00022009215461EE0751E05D400F09F
:1035F0008DF9303262556D1EF9D5B346012208436C
:1036000002D000227F1C04E02078302801D1002263
:103610007F1E002A099784D01DE0112D07DA00F0E3
:1036200075F9303262556D1C50EA0102F5D108433C
:1036300002D00098C8B10EE00021681E05E0235CAE
:10364000625C63542254401E491C8142F7DBAB4646
:10365000A81B401E0990002004F80B000B98099A43
:10366000C0F80880C0E9002B7AE711264FF0000867
:1036700057E72DE9F04F88460446D21D22F0070196
:1036800091B0D1E90001CDE90A0100F08DFE0246BA
:103690000B98C00F01D02D2007E02068810701D5CD
:1036A0002B2002E0202101EAC000032A099001D06A
:1036B000072A05DB03464146204600F085F90BE169
:1036C0002078800601D5E06900E00620B8F1650F9A
:1036D000814606D0B8F1660F18D0B8F1670F70D1E7
:1036E00031E00020B9F1110F009001DB112301E05E
:1036F00009F101030AAA01A90CA8FFF7E2FEDDE91E
:103700000C70002609F10105834647E001204B4675
:1037100000904FF000470AAA01A90CA8FFF7D1FEBC
:10372000DDE90DB00C995D46002610B909F10100E4
:103730000D18B9EB050003D4C0F1FF3609F10105FE
:10374000A5EB09002BE0B9F1010F01DA4FF00109F7
:103750000020B9F1110F0090484601DD112300E06F
:1037600003460AAA01A90CA8FFF7ABFEDDE90C701D
:103770004D4600268346207800070AD4AB4500DA80
:103780005D4601A8012D04DD411911F8011C302905
:1037900007D04F4502DA17F1040F04DA0120824600
:1037A0000FE06D1EEEE7002F02DCED1B3E4403E050
:1037B000781CA84200DD7D1CB81B00F1010A4FF007
:1037C00000472078000703D4AA4501DB4FF0FF3AF9
:1037D0000021B7F1004F0DF143088DF8431024D0BC
:1037E00002202B23002F01DA7F422D230A21021E03
:1037F000A0F1010000DC5FB197FBF1FC97FBF1F257
:1038000001FB1C7C17460CF1300C08F801CDEEE7EB
:10381000A8F1010003702188090501D5452100E0C8
:103820006521A0F1010800F8011C09980FA9A1EB7E
:103830000807FF1D00B10120411901EBEA70A169E1
:103840003844081A401EA0612078C00602D42046E1
:10385000AFF30080099828B1D4E901219047206A8C
:10386000401C20622078C00622D52046AFF300809D
:103870001EE0002E04DBB34502DD01A8805D00E000
:103880003020D4E901219047206A401C2062761C38
:10389000AAF101005FEA000A0AD100F033F8C0681B
:1038A0000168405CD4E901219047206A401C2062F5
:1038B000281EA5F10105DCDC07E0D4E9012118F898
:1038C000010B9047206A401C2062381EA7F10107B7
:1038D000F3DC2046AFF30080032011B041E6000086
:1038E000074B70B50D467B4400F05BF80446284654
:1038F00000F01CF910B14FF0FF3070BD204670BDD4
:103900009FD9FFFF004870473C02002030B5B0F15E
:103910000A024FEA900E71F100034EEA817EB0EB8D
:103920000E0061EB91014FEA101E4EEA017E10EB92
:103930000E0041EB11114FEA102E4EEA016E10EB12
:103940000E0041EB11214FEA104E4EEA014E10EBF2
:103950000E0041EB1141401841F100014FEAD00047
:1039600040EA41704FEAD10110EB80054FEA810433
:1039700044EA907444EB01046D1944EB0404521BB7
:10398000A3414FF0000348BF0A3200D530BD401CB0
:1039900041F1000130BD000001694A1C0261087854
:1039A000704700B58FB0CDE901310021059105497F
:1039B0007944CDE9031011466846FFF749FD0FB081
:1039C00000BD0000E5FFFFFF2DE9F0411F46044662
:1039D00003260168072A01F4006004DB08B116A57C
:1039E00005E016A503E008B115A500E015A521F036
:1039F00010002060A069C01EA0610FB1401EA06130
:103A00002046AFF300804FB1D4E9012138469047FA
:103A1000206A401C2062C01C206206E0206AFAE78F
:103A2000D4E9012115F8010B9047761EF8D2204603
:103A3000AFF30080BDE8F0814E414E006E616E0034
:103A4000494E4600696E66002DE9F04781461646EC
:103A50008AB0354878440DC88DE80D003248784466
:103A6000801C03AC0DC884E80D0041F69B3008446F
:103A7000372190FBF1F290FBF1F5A5F1800501FBF8
:103A800012041B3C02D56442012000E00020DFF854
:103A900098A080460027FA44AAF1BE0A0EE0E0078B
:103AA0000AD03246684607EB470101230AEB810141
:103AB00000F043FB8DE8070064107F1C002CEED162
:103AC000194F7F44AE3F19E0E80715D007EB04100B
:103AD0000DF1180A90E80E008AE80E00C068F04266
:103AE00001D1981908903246012306A903A800F0D5
:103AF00024FB03AB83E807006D10641C002DE3D1A9
:103B00004FF0010332466946B8F1000F03A802D016
:103B100000F0FEFA01E000F010FBC9E90001C9F86D
:103B200008200AB0BDE8F08798140000007B00F080
:103B300080007047004870471C0200207546FFF760
:103B4000F9FFAE4605006946534620F0070085465A
:103B500018B020B5FDF7C6FCBDE820404FF00006C8
:103B60004FF000074FF000084FF0000B21F0070165
:103B7000AC46ACE8C009ACE8C009ACE8C009ACE8A8
:103B8000C0098D46704710B50446AFF3008020464B
:103B9000BDE81040FCF76EBB4FF0013C50F8042B21
:103BA00051F8043B9A4221D1A2EB0C03934313EA50
:103BB000CC1317D150F8042B51F8043B9A4215D17D
:103BC000A2EB0C03934313EACC130BD150F8042B54
:103BD00051F8043B9A4209D1A2EB0C03934313EA38
:103BE000CC13DBD04FF00000704700BFD01A01BAF1
:103BF000B1FA81F101F0180122FA01F0CB40C1F1D4
:103C00002001DBB2C0B2C01A2CFA01F3D11A9143E1
:103C100011EAC311E6D170475FEA400C08BF91F08A
:103C2000000F4FEA8C234FEAC12243EA51514FEA79
:103C30001C5018BF00F5F0404FEA300018BF41F0AB
:103C400000415FEA6C5C00F02980BCF1FF3F08BFD7
:103C500040F080407047130C06BF12044FF0100C68
:103C60004FF0000C130E04BF12020CF1080C130FDE
:103C700004BF12010CF1040C930F04BF92000CF16D
:103C8000020CD30F04BF52000CF1010C11464FF08F
:103C90000002A0F11F00A0EB0C00704711F0004FD4
:103CA00008BF704731F000413FF4D5AF0B0C06BFA1
:103CB00009044FF0100C4FF0000C0B0E04BF09026A
:103CC0000CF1080C0B0F04BF09010CF1040C8B0F55
:103CD00004BF89000CF1020CCB0F04BF49000CF1AA
:103CE000010CCCF12003A0EB0C0022FA03F302FA42
:103CF0000CF241EA030100F10100704720F07F4C13
:103D000080EA030023F07F47ACEB070303F57C5305
:103D100000F0004003F1FF032DE980494FEA154B05
:103D200009B44FEA144325EA0B4E24EA03480FF284
:103D3000042606EB132749083E785FEA320203FBAC
:103D40000667C7F5000707FB06F64FEA54374FEA48
:103D5000D64606F1020607FB066CCCF1005C4FEA82
:103D60001C472CEA074C07FB06F40CFB06F504EB9A
:103D700015464FEA961634BF00204FF000404FEA38
:103D8000D13706FB07FC4FEA1C4C0CFB0BF7D21B90
:103D900003FB0CF761EB07010CFB0EF7B0EB0740E0
:103DA00072EB17420CFB08F734BFA2EB0742B2EBF1
:103DB000074261EB17414FEA0C444FEA910706FBBB
:103DC00007FC4FEA1C4C0CFB0BF7B0EBC74072EB47
:103DD000573203FB0CF734BFA2EBC742B2EBC7422A
:103DE00061EB57310CFB0EF7B0EBC70072EB57726B
:103DF0000CFB08F734BFA2EBC702B2EBC70261EBC2
:103E00005771039F4FEA816141EA921104EBCC04A0
:103E10004FEAD1374FEA826206FB07FC42EA901272
:103E20004FEA80604FEA1C4C0CFB0BF7D21B03FBE4
:103E30000CF761EB07010CFB0EF7B0EB074072EBE0
:103E400017420CFB08F734BFA2EB0742B2EB074264
:103E500061EB17414FEA8C554FEA910704EB9C2424
:103E600006FB07FC4FEA1C4C0CFB0BF7B0EBC74002
:103E700072EB573203FB0CF734BFA2EBC742B2EB35
:103E8000C74261EB57310CFB0EF7B0EBC70072EB8A
:103E900057720CFB08F734BFA2EBC702B2EBC702A4
:103EA00061EB577115EB4C254FEA816141EA9211A4
:103EB0004FEA82624FEAD13742EA901206FB07FCD2
:103EC00044F100044FEA80604FEA1C4C0CFB0BF7F6
:103ED000D21B03FB0CF761EB07010CFB0EF7B0EBF9
:103EE000074072EB17420CFB08F734BFA2EB074206
:103EF000B2EB074261EB174115EB1C154FEA81311C
:103F000041EA92414FEA823242EA90424FEA8030DF
:103F10004FEA0C7644F1000448EA03434EEA0B48AA
:103F20004FF0000EB2EB080C71EB030724BF6246A2
:103F300039464EEB0E0E4FF0000B0018524149412E
:103F40004BEB0B0BB2EB080C71EB03077BF1000B97
:103F500024BF624639464EEB0E0E4FF0000B0018A0
:103F6000524149414BEB0B0BB2EB080C71EB0307D1
:103F70007BF1000B24BF624639464EEB0E0E51EA30
:103F8000020718BF46F0010616EB0E7655F1000247
:103F900054F1000103D5BDE88901BDE80088BDE802
:103FA0008901BDE80048B619524141EB0101A3F176
:103FB0000103704780807F7E7D7C7B7A797877767D
:103FC00076757473727171706F6E6E6D6C6C6B6AF6
:103FD0006A69686867666665646463636261616094
:103FE000605F5F5E5E5D5D5C5C5B5B5A5A59595811
:103FF000585757565655555554545353525252517B
:10400000515050504F4F4F4E4E4D4D4D4C4C4C4BD0
:104010004B4B4A4A4A494949484848474747474617
:104020004646454545444444444343434342424253
:1040300042414141002B9C4630D477002BD01CB527
:104040004FEA370703B44FF010004FF01001BAF1F8
:10405000000F06D0BCF1000FDCBF40F0080040F0BC
:1040600008014FF000000FBCBDE810400BF1010B40
:10407000BBF1010F08BF5FEA170722BF12F101026F
:1040800011F101014FF0004143F1000300F0004045
:1040900043EA00007047F9D35708D0E746EA0646DE
:1040A00013F1400F4FEA16461FDD13F1200FDFBF5B
:1040B00016430A46002120335B42BED0C3F12007DD
:1040C00046EA064602FA07F74FEA164646EA0706A8
:1040D000C3F1200722FA03F201FA07F721FA03F1EC
:1040E0004FF0000342EA0702A7E746EA020646EA63
:1040F00006464FEA164646EA0106BCBF46EA0646B1
:10410000360C4FF000034FF000024FF0000194E72F
:104110002DE9804C9A46934670B491E8380007C860
:1041200031EA400C48BF34EA430C03D5FFF7E6FD03
:10413000FFF780FFF0BCBDE8008C2DE9804C9A466B
:10414000934670B491E8380007C810F0804F08BF5C
:1041500013F0804F03D100F005F8FFF76BFFF0BCC0
:10416000BDE8008C20F07F4780EA030023F07F4CFD
:1041700007EB0C03A3F57C5300F00040A3F1FE0312
:1041800092F0000F00F0B38095F0000F00F0778000
:104190002DE901494FEA11404FEA144621EA00484F
:1041A00000FB06FC24EA064708FB06F607FB08F8B6
:1041B00000FB07F718EB06484CEB164C4FEA124B86
:1041C00018EB07484FEA15464CEB174022EA0B4E16
:1041D0000BFB06FC25EA06470EFB06F607FB0EFE68
:1041E0000BFB07F71EEB064E4CEB164C4FF0000690
:1041F0001EEB074E4CEB174B18EB0B0840F1000081
:1042000018EB0E0B58EB000840F100008F1A4FF02E
:1042100000013CBFC943661B14BFB5EB040C002171
:104220003CBFC943F61B4FEA17444EEA8E0E27EAFD
:1042300004454FEA1C4704FB07622CEA074C05FBC8
:1042400007F70CFB05F604FB0CFC16EB074642EBEC
:10425000174216EB0C4642EB1C421BEB060658EBD2
:104260000202414146EA9E0601D5BDE80189B61920
:10427000524141EB0101A3F10103BDE801894FEA7D
:1042800014454FEA114724EA054621EA074C05FB8D
:1042900007F406FB07F70CFB06F105FB0CFC11EB22
:1042A000074144EB17444FEA124711EB0C4144EB32
:1042B0001C4422EA074C05FB07F206FB07F70CFB40
:1042C00006F605FB0CFC16EB074642EB174216EB15
:1042D0000C4642EB1C456A1854F1000148BF704778
:1042E000B619524141EB0101A3F10103704795F06A
:1042F000000F37D04FEA11424FEA144721EA024635
:1043000024EA074C02FB07F106FB07F70CFB06F457
:1043100002FB0CFC14EB074441EB17414FEA154735
:1043200014EB0C4441EB1C4125EA074C02FB07F55A
:1043300006FB07F70CFB06F602FB0CFC16EB074628
:1043400045EB174516EB0C4645EB1C42121951F193
:10435000000148BF7047B619524141EB0101A3F17A
:10436000010370474FEA14454FEA114724EA054616
:1043700021EA074C05FB07F106FB07F70CFB06F2E9
:104380004FF0000605FB0CFC12EB074241EB174116
:1043900012EB0C4251EB1C4148BF7047921841EBA5
:1043A0000101A3F10103704703B401984100009893
:1043B00050EAC12018BF04204A0D18BF40F0010088
:1043C00040F2FF72B2EB515F08BF40F002000128DB
:1043D00008BF052002B070472DED020B019820F0B8
:1043E000004001909DED000B02B0704710B5002910
:1043F0000AD00878002807D005487844FFF7CCFB9E
:10440000002801D0002010BD0248784410BD0000F3
:104410002E0B0000260B000021F00042A2F160529A
:10442000B2F5801F01F0004328BFD2F17F6C0BD999
:104430005FEA001C43EAC20242EB507018BF7047AB
:1044400028BF20F001007047B2F5801FBCBF18469E
:1044500070474FEA410C1CF5001F02D2084600F0DD
:1044600001BD70B500F014FB00000089FFF7F6BF36
:104470004FF00040A0F580007047000010B591EAB1
:10448000030F48BF83F0004300F19483841A71EB5B
:10449000030C05D2121943EB0C03001B61EB0C015A
:1044A000DFF824E14FEA1154A4EB135C1EEA430F3A
:1044B00018BF9EEA445F73D023EA0E03DCF1200E9E
:1044C00021EA045143F4801332D322FA0CFE10EB9C
:1044D0000E0023FA0CFE41EB0E01CCF1200E03FA84
:1044E0000EFE10EB0E0051F10001B1F5801FCCF172
:1044F000200E32D201EB045112FA0EF2BDE8104048
:1045000058BF7047401C38BF5FEA420218BF70476F
:10451000002814BF20F0010041F100014FEA4103DF
:1045200013F5001F38BF7047A1F1C04100F0FEBA7B
:10453000012A43EB0302ACF1200CDCF11F0E32BF69
:104540004FF0000E23FA0CF310EB030041EB045183
:10455000B4EB115FD0D0A1EB045101F580114908F3
:104560005FEA300001EB04510ED350F1000038BF78
:1045700012FA0EFE08D1BDE81040C9E7401C38BF52
:104580005FEA4202CAD1C3E7BDE810404FEA4103E7
:1045900013F5001F38BF7047A1F1C04100F0C6BA43
:1045A0009EEA445F08D011EA5E0FBDE8104004BFE8
:1045B00001F0004100207047BDE8104070B500F0E8
:1045C00067FA00BF64FBBE3E0000E0FF491058BF21
:1045D000C1F140415B1058BFC3F140438B42EFF340
:1045E000008070472DE9C04130B4DFF8A0C23CEA3A
:1045F000111418BF3CEA131400F0EC8081EA0305A3
:104600001CEA111444EAD57418BF1CEA131500F013
:10461000C780A4EB05044FF0004545EAC12145EAF7
:10462000C32341EA505143EA525304F17F74994243
:1046300004F500344FEAC0204FEAC22208BF90427E
:1046400000F09C804FEA13650FF24016765D4FEA4A
:10465000134506FB05F7C7F1807706FB07F74FEA1E
:10466000D737A7FB03687642C8F58038A7FB06CE8C
:1046700038BFA8F1010807FB08E64FF0000EA6FBC3
:10468000028CE6FB03CEDCF1000CCEF1004E38BF0D
:10469000AEF1010EA6FB0C584FF000074FF00005DD
:1046A000E6FB0E87A1FB08C6A0FB07CE16EB0E06A5
:1046B00045F10005E1FB076515F1E04E7EBFA4F56D
:1046C00080345FEA46066D4116F1800745F100052A
:1046D0004FEA17274FEA066647EA0567A6F1DE4666
:1046E000B6F1805F4FEA15251FD9384624F0010C3A
:1046F00005EBC471BCF1FE6F01EB0C1102D8F0BCEC
:10470000BDE8008124425CBF01F5801E9EEAC47FA3
:1047100002D4F0BCBDE80081244238D4F0BCA1F141
:10472000C041BDE8004100F001BA4FEAD22242EA9E
:1047300043524FEAD323A7FB02864FEAD02040EA38
:10474000415007FB03661EEA0E0F4FEAD12105FB1D
:10475000026658BFA6EB0056B6EB00564FEA520E63
:104760004EEAC37E18EB0E0E56EB530EBDD518EB7A
:1047700002085E417F1C55F10005B6E74FF4801535
:104780004FF000074FF000064FF00008ADE7F0BC17
:104790004FF0000001F1C04101F00041BDE800818F
:1047A00011EA0C1F0CEA131500D00CE013EA0C1FE1
:1047B00000F025804FF00000F0BC81EA030101F019
:1047C0000041BDE80081F0BCBDE8004181EA030181
:1047D00000F0ACB9F0BCBDE8004170B500F058F98C
:1047E000097EFC3E00F007B881EA03014FF00000AB
:1047F00001F00041704781EA030100F097B9F0BC75
:10480000BDE800414FF0000021497047FFFDFBF972
:10481000F7F5F4F2F0EEEDEBE9E8E6E4E3E1E0DEF3
:10482000DDDBDAD8D7D5D4D3D1D0CFCDCCCBCAC865
:10483000C7C6C5C4C2C1C0BFBEBDBCBBBAB9B8B78C
:10484000B6B5B4B3B2B1B0AFAEADACABAAA9A8A87F
:10485000A7A6A5A4A3A3A2A1A09F9F9E9D9C9C9B4D
:104860009A999998979796959594939392919190F8
:104870008F8F8E8E8D8C8C8B8B8A89898888878789
:104880008685858484838382828181800000FF07FE
:104890000000F87F10F0004248BF4042B0FA80F3B9
:1048A00010FA03F10AD0C3F11D0303F580634FEA48
:1048B000415002EB035202EBD12170474FF0000050
:1048C0007047000051EA030C17D41CF5801F58BF35
:1048D000BCF5801F00F10680994218BF704708BFE1
:1048E0009042704707D711F5801F58BF13F5801FFE
:1048F00019D499427047894270471CF5801F08D52A
:10490000BCF5801FF7D58B4218BF704708BF8242A5
:1049100070474FF4001C1CEB410F38BF1CEB430FDA
:1049200001D28B42704770B500F0B2F89224490072
:104930004FF000514FF08053FFF748BEDFF848C1F9
:1049400070B51CEA111E1EBF1CEA13159EEA0C0F5F
:1049500095EA0C0F00F06F8081EA030423EA4C1300
:104960004EEAD47E21EA4C1141F4801143F48013C5
:10497000AE44A1FB024CA0FB0365AEF17F7E36196D
:1049800055EB0C05A1FB034C4CF10003A0FB021CF2
:1049900016EB0C06654153F10003094218BF46F0BF
:1049A000010613F4007F0BD14FEA03314FEA0530C3
:1049B000340341EA155140EA16506FF003020AE051
:1049C0004FEAC3214FEAC520F40241EA555140EABB
:1049D00056506FF0020202EB2E4201EB025585EABF
:1049E000CE710AD05FEA440C18BF24F0004450F1A5
:1049F000000041F1000120EAD47040F2FE7C6245E3
:104A000000D270BDA84214BF4FF080444FF0404424
:104A1000002E08BF0024BEF1806FA8BFA1F1C041E5
:104A2000BDE8704080F282804FF0000001F1C0418B
:104A300001F0004170479EEA0C0F0CEA131518BFF5
:104A400095EA0C0F06D04FF0000081EA030E0EF03D
:104A5000004170BD00F01CF88900013E00F007B86D
:104A600000F009B84FEA430C5FEA5C5C08D081EAC9
:104A7000030100F05BB84FEA410C5FEA5C5CF6D1E1
:104A80004FF00000014970470000FF070000F87F69
:104A90000EF1020E2EF0030E5EF8046B364205D4C2
:104AA000012A43EB030515F5001F12D8012841EB3D
:104AB000010C1CF5001F0CD80ED14FEAD17C15F566
:104AC000001F0CEB4C0C0CF1020C08BF4CEBD37C20
:104AD00004E04FF0080C01E04FEAD37C0CEB4C05EE
:104AE00026FA05F606F00706B6F1040C06D20EEB20
:104AF000860CBDE870404CF0010C6047DFE80CF01C
:104B0000090B02024FF000414FF00000A1F5002117
:104B100070BD19461046012851EB010418BFD4F5A9
:104B2000001484BF002001F0004170BD0808A0F50A
:104B300000114FEA3101704753EA010C17D41CF5FC
:104B4000801F58BFBCF5801F00F106808B4218BF44
:104B5000704708BF8242704707D713F5801F58BFC0
:104B600011F5801F19D48B4270479B4270471CF58A
:104B7000801F08D5BCF5801FF7D5994218BF704734
:104B800008BF904270474FF4001C1CEB430F38BF26
:104B90001CEB410F01D2994270470FB40CBC03BC0F
:104BA000FFF7C1BE10B591EA030F48BF83F0004381
:104BB0003FF56CAC841A71EB030C07D212198CF020
:104BC000004C43EB0C03001B61EB0C01DFF8A4E18C
:104BD0004FEA1154A4EB135C1EEA430F18BF9EEA80
:104BE000445F00F0B08023EA6E03524221EA045190
:104BF000C3EB6E0338BF5B1EDCF1200E25D322FA17
:104C00000CFE10EB0E0043FA0CFE41EB0E01CCF152
:104C1000200E03FA0EFE10EB0E0051F10001CCF154
:104C2000200E29D412FA0EF201EB0451BDE8104017
:104C300058BF7047401C1CBFB2F1004F704700289E
:104C40000CBF491C20F00100704712EB020E43EB31
:104C5000030218BF4FF0010E4EEA4202ACF1200CE5
:104C6000DCF11E0E54D943FA0CFE10EB0E0051F18C
:104C7000FF31CCF11E0ED5D50EF1010E12FA0EFE4B
:104C8000404141EB010101EB445C5FEA5C5C10D9FF
:104C900010EBDE7001EB045138BFBEF1004FBDE8F0
:104CA000104018BF704700280CBF491C20F00100BD
:104CB000704730D24FEAD42C11F5001124F400646F
:104CC0001BD0B1FA81F20B3AA41AA41ED2F1200330
:104CD000914030FA03F31943904001EBCC71002C62
:104CE00001EB0451BDE81040A8BF704701F1C0417D
:104CF0004FF0000001F000417047B0FA80F310FA65
:104D000003F100D110BDE41A173C4805C90AE4E7D5
:104D100001EB045110BD491001EB0451BDE81040F6
:104D20004FEA300002E04FF0000170474A0008BF30
:104D30000042F8D0B2F5001F28BF704701F00041D3
:104D40004FF0000070479EEA445F07D011EA5E0F03
:104D5000BDE8104004BF002100207047BDE81040AE
:104D600070B5FFF795FE00BF40DFF63E83F00041CF
:104D7000104670470000E0FF43004FEAD30C4FEAB3
:104D80003C0C43401FBF40070CF1605113F0FE4F35
:104D900070471CF0006F03D100200CF000417047F9
:104DA0000CF0004343EA507010B540EACC0000F02C
:104DB0000EF800BF000000924FEA0001FFF7B6BEF8
:104DC0004FF000414FF00000A1F5002170470EF1B7
:104DD000020E2EF0030E5EF8044B244204D44FEA78
:104DE0004102B2F17F4F11D84FEA4003B3F17F4F38
:104DF0000CD80ED14FEAD07CB2F17F4F0CEB4C0CAB
:104E00000CF1020C08BF4CEBD17C04E04FF0080C15
:104E100001E04FEAD17C0CEB4C0324FA03F404F0DC
:104E20000704B4F1040C06D20EEB840CBDE810406C
:104E30004CF0010C6047DFE80CF0070802024FF06D
:104E40000040A0F5800010BD0846420018BFD2F116
:104E5000807288BF00F0004010BD4FF04070E1EE5E
:104E6000100A7047FF2141EAD050C0057047FEF795
:104E700000BC000002400000000000A00000000094
:104E800005400000000000C8000000000C400000C9
:104E90000000409C00000000194000000020BCBE43
:104EA0000000000034400000BFC91B8E0000000459
:104EB000B5400000504BCFD06607E2CF01000000A4
:104EC0006C4100003E8251AADFEEA73401000000D1
:104ED000D9420000DCB5A0E23A301F97FFFFFFFF88
:104EE000B4450000FD25A0C8E9A3C14FFFFFFFFFA7
:104EF000FF3F00000000008000000000FF3F0000B6
:104F00000000008000000000444F00080000002066
:104F1000F4010000C4010008A44F0008F4010020BF
:104F20008C060000200200081C0000004300000066
:104F3000F8FFFFFF0C0000000E0000000F00000053
:104F40002E000000211205022CC8847A030A0009F1
:104F50001A0102030406070809E32E40000B1E2075
:104F600040FCA9F1D24D62503F5A5938032859C02C
:104F7000780852B81E85EB51B8583A33010B56C326
:104F80003F7061DAF8700A5DF370210211010B10B5
:104F9000803F140910282D010203040405000607B0
:044FA00008090000FC
:040000050800018965
:00000001FF
